{
  "contractName": "VoteMachine",
  "abi": [
    {
      "inputs": [],
      "stateMutability": "nonpayable",
      "type": "constructor"
    },
    {
      "inputs": [
        {
          "internalType": "uint256",
          "name": "",
          "type": "uint256"
        }
      ],
      "name": "ElectionHistory",
      "outputs": [
        {
          "internalType": "uint256",
          "name": "id",
          "type": "uint256"
        },
        {
          "internalType": "uint256",
          "name": "age",
          "type": "uint256"
        },
        {
          "internalType": "uint256",
          "name": "voteCount",
          "type": "uint256"
        },
        {
          "internalType": "uint256",
          "name": "numberOfCategories",
          "type": "uint256"
        }
      ],
      "stateMutability": "view",
      "type": "function",
      "constant": true
    },
    {
      "inputs": [],
      "name": "OWNER",
      "outputs": [
        {
          "internalType": "address",
          "name": "",
          "type": "address"
        }
      ],
      "stateMutability": "view",
      "type": "function",
      "constant": true
    },
    {
      "inputs": [],
      "name": "maxElectionId",
      "outputs": [
        {
          "internalType": "uint256",
          "name": "",
          "type": "uint256"
        }
      ],
      "stateMutability": "view",
      "type": "function",
      "constant": true
    },
    {
      "inputs": [
        {
          "internalType": "address[]",
          "name": "_allowedVoters",
          "type": "address[]"
        },
        {
          "internalType": "uint256",
          "name": "age",
          "type": "uint256"
        },
        {
          "internalType": "uint256",
          "name": "_numberOfCategories",
          "type": "uint256"
        }
      ],
      "name": "createElection",
      "outputs": [],
      "stateMutability": "nonpayable",
      "type": "function"
    },
    {
      "inputs": [
        {
          "internalType": "address",
          "name": "voterAddress",
          "type": "address"
        }
      ],
      "name": "checkUserIfVoteExist",
      "outputs": [
        {
          "internalType": "bool",
          "name": "",
          "type": "bool"
        }
      ],
      "stateMutability": "view",
      "type": "function",
      "constant": true
    },
    {
      "inputs": [
        {
          "internalType": "uint256",
          "name": "_eventId",
          "type": "uint256"
        },
        {
          "internalType": "uint256",
          "name": "categoryId",
          "type": "uint256"
        }
      ],
      "name": "registerVote",
      "outputs": [],
      "stateMutability": "nonpayable",
      "type": "function"
    },
    {
      "inputs": [
        {
          "internalType": "uint256",
          "name": "_eventId",
          "type": "uint256"
        }
      ],
      "name": "getCategoryId",
      "outputs": [
        {
          "internalType": "uint256[]",
          "name": "",
          "type": "uint256[]"
        }
      ],
      "stateMutability": "view",
      "type": "function",
      "constant": true
    }
  ],
  "bytecode": "0x60806040526000805534801561001457600080fd5b5033600160006101000a81548173ffffffffffffffffffffffffffffffffffffffff021916908373ffffffffffffffffffffffffffffffffffffffff1602179055506112ad806100656000396000f3fe608060405234801561001057600080fd5b506004361061007d5760003560e01c80634f05dba81161005b5780634f05dba8146100ee578063b88218d71461010a578063bedcf6c414610126578063ff3764fb146101595761007d565b806301fad681146100825780630950ed8b146100b2578063117803e3146100d0575b600080fd5b61009c600480360381019061009791906109fb565b610189565b6040516100a99190610a43565b60405180910390f35b6100ba61027b565b6040516100c79190610a77565b60405180910390f35b6100d8610281565b6040516100e59190610aa1565b60405180910390f35b61010860048036038101906101039190610c41565b6102a7565b005b610124600480360381019061011f9190610cb0565b6104e1565b005b610140600480360381019061013b9190610cf0565b6107c7565b6040516101509493929190610d1d565b60405180910390f35b610173600480360381019061016e9190610cf0565b6107f7565b6040516101809190610e20565b60405180910390f35b6000806000905060005b6003600060016000546101a69190610e71565b815260200190815260200160002060020180549050811015610271578373ffffffffffffffffffffffffffffffffffffffff166003600060016000546101ec9190610e71565b8152602001908152602001600020600201828154811061020f5761020e610ea5565b5b9060005260206000200160009054906101000a900473ffffffffffffffffffffffffffffffffffffffff1673ffffffffffffffffffffffffffffffffffffffff160361025e5760019150610271565b808061026990610ed4565b915050610193565b5080915050919050565b60005481565b600160009054906101000a900473ffffffffffffffffffffffffffffffffffffffff1681565b600160009054906101000a900473ffffffffffffffffffffffffffffffffffffffff1673ffffffffffffffffffffffffffffffffffffffff163373ffffffffffffffffffffffffffffffffffffffff1614610337576040517f08c379a000000000000000000000000000000000000000000000000000000000815260040161032e90610f79565b60405180910390fd5b60005460036000805481526020019081526020016000206000018190555081426103619190610f99565b60036000805481526020019081526020016000206001018190555060006003600080548152602001908152602001600020600301819055508060036000805481526020019081526020016000206004018190555060005b83518110156104665760036000805481526020019081526020016000206002018482815181106103eb576103ea610ea5565b5b60200260200101519080600181540180825580915050600190039060005260206000200160009091909190916101000a81548173ffffffffffffffffffffffffffffffffffffffff021916908373ffffffffffffffffffffffffffffffffffffffff160217905550808061045e90610ed4565b9150506103b8565b5060005b818110156104c45760036000805481526020019081526020016000206005016000908060018154018082558091505060019003906000526020600020016000909190919091505580806104bc90610ed4565b91505061046a565b506000808154809291906104d790610ed4565b9190505550505050565b6000548210610525576040517f08c379a000000000000000000000000000000000000000000000000000000000815260040161051c9061103b565b60405180910390fd5b60016000546105349190610e71565b8214610575576040517f08c379a000000000000000000000000000000000000000000000000000000000815260040161056c906110a7565b60405180910390fd5b426003600084815260200190815260200160002060010154116105cd576040517f08c379a00000000000000000000000000000000000000000000000000000000081526004016105c490611113565b60405180910390fd5b8060036000848152602001908152602001600020600401541015610626576040517f08c379a000000000000000000000000000000000000000000000000000000000815260040161061d9061117f565b60405180910390fd5b61062f33610189565b61066e576040517f08c379a0000000000000000000000000000000000000000000000000000000008152600401610665906111eb565b60405180910390fd5b60001515600260003373ffffffffffffffffffffffffffffffffffffffff1673ffffffffffffffffffffffffffffffffffffffff168152602001908152602001600020600084815260200190815260200160002060009054906101000a900460ff16151514610712576040517f08c379a000000000000000000000000000000000000000000000000000000000815260040161070990611257565b60405180910390fd5b6001600260003373ffffffffffffffffffffffffffffffffffffffff1673ffffffffffffffffffffffffffffffffffffffff168152602001908152602001600020600084815260200190815260200160002060006101000a81548160ff0219169083151502179055506003600083815260200190815260200160002060050181815481106107a3576107a2610ea5565b5b9060005260206000200160008154809291906107be90610ed4565b91905055505050565b60036020528060005260406000206000915090508060000154908060010154908060030154908060040154905084565b6060600160009054906101000a900473ffffffffffffffffffffffffffffffffffffffff1673ffffffffffffffffffffffffffffffffffffffff163373ffffffffffffffffffffffffffffffffffffffff1614610889576040517f08c379a000000000000000000000000000000000000000000000000000000000815260040161088090610f79565b60405180910390fd5b60005482106108cd576040517f08c379a00000000000000000000000000000000000000000000000000000000081526004016108c49061103b565b60405180910390fd5b60016000546108dc9190610e71565b821461091d576040517f08c379a0000000000000000000000000000000000000000000000000000000008152600401610914906110a7565b60405180910390fd5b6003600083815260200190815260200160002060050180548060200260200160405190810160405280929190818152602001828054801561097d57602002820191906000526020600020905b815481526020019060010190808311610969575b50505050509050919050565b6000604051905090565b600080fd5b600080fd5b600073ffffffffffffffffffffffffffffffffffffffff82169050919050565b60006109c88261099d565b9050919050565b6109d8816109bd565b81146109e357600080fd5b50565b6000813590506109f5816109cf565b92915050565b600060208284031215610a1157610a10610993565b5b6000610a1f848285016109e6565b91505092915050565b60008115159050919050565b610a3d81610a28565b82525050565b6000602082019050610a586000830184610a34565b92915050565b6000819050919050565b610a7181610a5e565b82525050565b6000602082019050610a8c6000830184610a68565b92915050565b610a9b816109bd565b82525050565b6000602082019050610ab66000830184610a92565b92915050565b600080fd5b6000601f19601f8301169050919050565b7f4e487b7100000000000000000000000000000000000000000000000000000000600052604160045260246000fd5b610b0a82610ac1565b810181811067ffffffffffffffff82111715610b2957610b28610ad2565b5b80604052505050565b6000610b3c610989565b9050610b488282610b01565b919050565b600067ffffffffffffffff821115610b6857610b67610ad2565b5b602082029050602081019050919050565b600080fd5b6000610b91610b8c84610b4d565b610b32565b90508083825260208201905060208402830185811115610bb457610bb3610b79565b5b835b81811015610bdd5780610bc988826109e6565b845260208401935050602081019050610bb6565b5050509392505050565b600082601f830112610bfc57610bfb610abc565b5b8135610c0c848260208601610b7e565b91505092915050565b610c1e81610a5e565b8114610c2957600080fd5b50565b600081359050610c3b81610c15565b92915050565b600080600060608486031215610c5a57610c59610993565b5b600084013567ffffffffffffffff811115610c7857610c77610998565b5b610c8486828701610be7565b9350506020610c9586828701610c2c565b9250506040610ca686828701610c2c565b9150509250925092565b60008060408385031215610cc757610cc6610993565b5b6000610cd585828601610c2c565b9250506020610ce685828601610c2c565b9150509250929050565b600060208284031215610d0657610d05610993565b5b6000610d1484828501610c2c565b91505092915050565b6000608082019050610d326000830187610a68565b610d3f6020830186610a68565b610d4c6040830185610a68565b610d596060830184610a68565b95945050505050565b600081519050919050565b600082825260208201905092915050565b6000819050602082019050919050565b610d9781610a5e565b82525050565b6000610da98383610d8e565b60208301905092915050565b6000602082019050919050565b6000610dcd82610d62565b610dd78185610d6d565b9350610de283610d7e565b8060005b83811015610e13578151610dfa8882610d9d565b9750610e0583610db5565b925050600181019050610de6565b5085935050505092915050565b60006020820190508181036000830152610e3a8184610dc2565b905092915050565b7f4e487b7100000000000000000000000000000000000000000000000000000000600052601160045260246000fd5b6000610e7c82610a5e565b9150610e8783610a5e565b925082821015610e9a57610e99610e42565b5b828203905092915050565b7f4e487b7100000000000000000000000000000000000000000000000000000000600052603260045260246000fd5b6000610edf82610a5e565b91507fffffffffffffffffffffffffffffffffffffffffffffffffffffffffffffffff8203610f1157610f10610e42565b5b600182019050919050565b600082825260208201905092915050565b7f4f6e6c79204f776e657200000000000000000000000000000000000000000000600082015250565b6000610f63600a83610f1c565b9150610f6e82610f2d565b602082019050919050565b60006020820190508181036000830152610f9281610f56565b9050919050565b6000610fa482610a5e565b9150610faf83610a5e565b9250827fffffffffffffffffffffffffffffffffffffffffffffffffffffffffffffffff03821115610fe457610fe3610e42565b5b828201905092915050565b7f456c656374696f6e20446f6573206e6f74206578697374000000000000000000600082015250565b6000611025601783610f1c565b915061103082610fef565b602082019050919050565b6000602082019050818103600083015261105481611018565b9050919050565b7f496e76616c696420416374696f6e000000000000000000000000000000000000600082015250565b6000611091600e83610f1c565b915061109c8261105b565b602082019050919050565b600060208201905081810360008301526110c081611084565b9050919050565b7f456c656374696f6e20656e646564000000000000000000000000000000000000600082015250565b60006110fd600e83610f1c565b9150611108826110c7565b602082019050919050565b6000602082019050818103600083015261112c816110f0565b9050919050565b7f43617465676f727920646f6e7420657869737473000000000000000000000000600082015250565b6000611169601483610f1c565b915061117482611133565b602082019050919050565b600060208201905081810360008301526111988161115c565b9050919050565b7f55736572206e6f7420696e20766f74696e67206c697374000000000000000000600082015250565b60006111d5601783610f1c565b91506111e08261119f565b602082019050919050565b60006020820190508181036000830152611204816111c8565b9050919050565b7f5573657220616c726561647920766f7465640000000000000000000000000000600082015250565b6000611241601283610f1c565b915061124c8261120b565b602082019050919050565b6000602082019050818103600083015261127081611234565b905091905056fea26469706673582212204bf502699b838da4a9bb7b20f6b710d4608fe3db385c8dde6566e7df7a43238064736f6c634300080d0033",
  "immutableReferences": {},
  "source": "// SPDX-License-Identifier: MIT\npragma solidity >=0.4.22 <0.9.0;\n\ncontract VoteMachine {\n    uint256 public maxElectionId = 0;\n    address public OWNER;\n\n    struct Election {\n        uint256 id;\n        uint256 age;\n        address[] allowedVoters;\n        uint256 voteCount;\n        uint256 numberOfCategories;\n        uint256[] categoryVoteCount;\n    }\n\n    mapping(address => mapping(uint256 => bool)) votingRecord;\n    // Election[] public ElectionHistory;\n    mapping(uint256 => Election) public ElectionHistory;\n\n    constructor() {\n        OWNER = msg.sender;\n    }\n\n    modifier onlyContractCreator() {\n        require(msg.sender == OWNER, \"Only Owner\");\n        _;\n    }\n\n    function createElection(\n        address[] memory _allowedVoters,\n        uint256 age,\n        uint256 _numberOfCategories\n    ) public onlyContractCreator {\n        ElectionHistory[maxElectionId].id = maxElectionId;\n        ElectionHistory[maxElectionId].age = block.timestamp + age;\n        ElectionHistory[maxElectionId].voteCount = 0;\n        ElectionHistory[maxElectionId].numberOfCategories = _numberOfCategories;\n\n        for (uint256 i = 0; i < _allowedVoters.length; i++) {\n            ElectionHistory[maxElectionId].allowedVoters.push(\n                _allowedVoters[i]\n            );\n        }\n\n        for (uint256 i = 0; i < _numberOfCategories; i++) {\n            ElectionHistory[maxElectionId].categoryVoteCount.push(0);\n        }\n\n        maxElectionId++;\n    }\n\n    function checkUserIfVoteExist(address voterAddress)\n        public\n        view\n        returns (bool)\n    {\n        bool is_valid_user = false;\n\n        for (\n            uint256 i = 0;\n            i < ElectionHistory[maxElectionId - 1].allowedVoters.length;\n            i++\n        ) {\n            if (\n                ElectionHistory[maxElectionId - 1].allowedVoters[i] ==\n                voterAddress\n            ) {\n                is_valid_user = true;\n                break;\n            }\n        }\n        return is_valid_user;\n    }\n\n    function registerVote(uint256 _eventId, uint256 categoryId) external {\n        require(_eventId < maxElectionId, \"Election Does not exist\");\n        require(_eventId == (maxElectionId - 1), \"Invalid Action\");\n        require(\n            ElectionHistory[_eventId].age > block.timestamp,\n            \"Election ended\"\n        );\n        require(\n            ElectionHistory[_eventId].numberOfCategories >= categoryId,\n            \"Category dont exists\"\n        );\n        require(checkUserIfVoteExist(msg.sender), \"User not in voting list\");\n        require(\n            votingRecord[msg.sender][_eventId] == false,\n            \"User already voted\"\n        );\n        votingRecord[msg.sender][_eventId] = true;\n        ElectionHistory[_eventId].categoryVoteCount[categoryId]++;\n    }\n\n    function getCategoryId(uint256 _eventId)\n        public\n        view\n        onlyContractCreator\n        returns (uint256[] memory)\n    {\n        require(_eventId < maxElectionId, \"Election Does not exist\");\n        require(_eventId == (maxElectionId - 1), \"Invalid Action\");\n        return ElectionHistory[_eventId].categoryVoteCount;\n    }\n}\n",
  "sourcePath": "/home/rajan/Documents/Rajan/BlockChain/Web3Apps/voting-machine/contracts/Migrations.sol",
  "compiler": {
    "name": "solc",
    "version": "0.8.13+commit.abaa5c0e.Emscripten.clang"
  },
  "schemaVersion": "3.4.7",
  "updatedAt": "2022-06-05T11:26:07.083Z",
  "networkType": "ethereum",
  "devdoc": {
    "kind": "dev",
    "methods": {},
    "version": 1
  },
  "userdoc": {
    "kind": "user",
    "methods": {},
    "version": 1
  }
}