{
  "contractName": "Escrow",
  "abi": [
    {
      "inputs": [
        {
          "internalType": "address payable",
          "name": "_dev",
          "type": "address"
        },
        {
          "internalType": "address",
          "name": "_customer",
          "type": "address"
        },
        {
          "internalType": "uint256",
          "name": "_amount",
          "type": "uint256"
        }
      ],
      "stateMutability": "nonpayable",
      "type": "constructor"
    },
    {
      "inputs": [],
      "name": "amount",
      "outputs": [
        {
          "internalType": "uint256",
          "name": "",
          "type": "uint256"
        }
      ],
      "stateMutability": "view",
      "type": "function",
      "constant": true
    },
    {
      "inputs": [],
      "name": "customer",
      "outputs": [
        {
          "internalType": "address",
          "name": "",
          "type": "address"
        }
      ],
      "stateMutability": "view",
      "type": "function",
      "constant": true
    },
    {
      "inputs": [],
      "name": "dev",
      "outputs": [
        {
          "internalType": "address payable",
          "name": "",
          "type": "address"
        }
      ],
      "stateMutability": "view",
      "type": "function",
      "constant": true
    },
    {
      "inputs": [],
      "name": "website",
      "outputs": [
        {
          "internalType": "address",
          "name": "",
          "type": "address"
        }
      ],
      "stateMutability": "view",
      "type": "function",
      "constant": true
    },
    {
      "inputs": [],
      "name": "deposit",
      "outputs": [],
      "stateMutability": "payable",
      "type": "function",
      "payable": true
    },
    {
      "inputs": [],
      "name": "sendMoney",
      "outputs": [],
      "stateMutability": "nonpayable",
      "type": "function"
    },
    {
      "inputs": [],
      "name": "getBalance",
      "outputs": [
        {
          "internalType": "uint256",
          "name": "",
          "type": "uint256"
        }
      ],
      "stateMutability": "view",
      "type": "function",
      "constant": true
    }
  ],
  "bytecode": "0x608060405234801561001057600080fd5b5060405161077a38038061077a833981810160405281019061003291906101da565b826000806101000a81548173ffffffffffffffffffffffffffffffffffffffff021916908373ffffffffffffffffffffffffffffffffffffffff16021790555033600160006101000a81548173ffffffffffffffffffffffffffffffffffffffff021916908373ffffffffffffffffffffffffffffffffffffffff16021790555081600260006101000a81548173ffffffffffffffffffffffffffffffffffffffff021916908373ffffffffffffffffffffffffffffffffffffffff1602179055508060038190555050505061022d565b600080fd5b600073ffffffffffffffffffffffffffffffffffffffff82169050919050565b600061013382610108565b9050919050565b61014381610128565b811461014e57600080fd5b50565b6000815190506101608161013a565b92915050565b600061017182610108565b9050919050565b61018181610166565b811461018c57600080fd5b50565b60008151905061019e81610178565b92915050565b6000819050919050565b6101b7816101a4565b81146101c257600080fd5b50565b6000815190506101d4816101ae565b92915050565b6000806000606084860312156101f3576101f2610103565b5b600061020186828701610151565b93505060206102128682870161018f565b9250506040610223868287016101c5565b9150509250925092565b61053e8061023c6000396000f3fe6080604052600436106100705760003560e01c8063aa8c217c1161004e578063aa8c217c146100f6578063beb0a41614610121578063cbedbf5a1461014c578063d0e30db01461016357610070565b806312065fe0146100755780632804b2c0146100a057806391cca3db146100cb575b600080fd5b34801561008157600080fd5b5061008a61016d565b6040516100979190610346565b60405180910390f35b3480156100ac57600080fd5b506100b5610175565b6040516100c291906103a2565b60405180910390f35b3480156100d757600080fd5b506100e061019b565b6040516100ed91906103de565b60405180910390f35b34801561010257600080fd5b5061010b6101bf565b6040516101189190610346565b60405180910390f35b34801561012d57600080fd5b506101366101c5565b60405161014391906103a2565b60405180910390f35b34801561015857600080fd5b506101616101eb565b005b61016b610256565b005b600047905090565b600260009054906101000a900473ffffffffffffffffffffffffffffffffffffffff1681565b60008054906101000a900473ffffffffffffffffffffffffffffffffffffffff1681565b60035481565b600160009054906101000a900473ffffffffffffffffffffffffffffffffffffffff1681565b60008054906101000a900473ffffffffffffffffffffffffffffffffffffffff1673ffffffffffffffffffffffffffffffffffffffff166108fc6003549081150290604051600060405180830381858888f19350505050158015610253573d6000803e3d6000fd5b50565b600260009054906101000a900473ffffffffffffffffffffffffffffffffffffffff1673ffffffffffffffffffffffffffffffffffffffff163373ffffffffffffffffffffffffffffffffffffffff16146102e6576040517f08c379a00000000000000000000000000000000000000000000000000000000081526004016102dd90610456565b60405180910390fd5b60035447111561032b576040517f08c379a0000000000000000000000000000000000000000000000000000000008152600401610322906104e8565b60405180910390fd5b565b6000819050919050565b6103408161032d565b82525050565b600060208201905061035b6000830184610337565b92915050565b600073ffffffffffffffffffffffffffffffffffffffff82169050919050565b600061038c82610361565b9050919050565b61039c81610381565b82525050565b60006020820190506103b76000830184610393565b92915050565b60006103c882610361565b9050919050565b6103d8816103bd565b82525050565b60006020820190506103f360008301846103cf565b92915050565b600082825260208201905092915050565b7f4f6e6c7920637573746f6d65722063616e20616464206d6f6e65790000000000600082015250565b6000610440601b836103f9565b915061044b8261040a565b602082019050919050565b6000602082019050818103600083015261046f81610433565b9050919050565b7f4d6f6e65792063616e206e6f742065786365656420676976656e20616d6f756e60008201527f7400000000000000000000000000000000000000000000000000000000000000602082015250565b60006104d26021836103f9565b91506104dd82610476565b604082019050919050565b60006020820190508181036000830152610501816104c5565b905091905056fea26469706673582212209dcfe85292970d38d5af8b9dd8fb941c95b473d8ce6ca81c098e4ebb24dd4e1664736f6c634300080d0033",
  "immutableReferences": {},
  "source": "pragma solidity ^0.8.13;\n\ncontract Escrow{\n    address payable public dev;\n    address public website;\n    address public customer;\n    uint public amount;\n\n    constructor( address payable _dev, address _customer,uint _amount){\n        dev = _dev;\n        website = msg.sender;\n        customer = _customer;\n        amount = _amount;\n\n    }\n\n    function deposit() payable public{\n        require(msg.sender == customer, \"Only customer can add money\");\n        require(address(this).balance <= amount, \"Money can not exceed given amount\");\n    }\n\n    function sendMoney() public{\n        // require(msg.sender == website, \"Only website can transfer money\");\n        // require(address(this).balance == amount, \"Amount not proper\"); \n        dev.transfer(amount);\n    }\n\n    function getBalance() view public returns(uint){\n        return address(this).balance;\n    }\n\n}",
  "sourcePath": "/home/rajan/Documents/Rajan/BlockChain/Web3Apps/escrow/contracts/Escrow.sol",
  "compiler": {
    "name": "solc",
    "version": "0.8.13+commit.abaa5c0e.Emscripten.clang"
  },
  "schemaVersion": "3.4.7",
  "updatedAt": "2022-05-25T19:45:07.893Z",
  "networkType": "ethereum",
  "devdoc": {
    "kind": "dev",
    "methods": {},
    "version": 1
  },
  "userdoc": {
    "kind": "user",
    "methods": {},
    "version": 1
  }
}