{
  "contractName": "MultiSig",
  "abi": [
    {
      "inputs": [
        {
          "internalType": "uint256",
          "name": "_amount",
          "type": "uint256"
        },
        {
          "internalType": "uint256",
          "name": "_minNumberOfVotes",
          "type": "uint256"
        },
        {
          "internalType": "address[]",
          "name": "_adminUsers",
          "type": "address[]"
        }
      ],
      "stateMutability": "payable",
      "type": "constructor",
      "payable": true
    },
    {
      "inputs": [
        {
          "internalType": "uint256",
          "name": "",
          "type": "uint256"
        }
      ],
      "name": "adminUsers",
      "outputs": [
        {
          "internalType": "address",
          "name": "",
          "type": "address"
        }
      ],
      "stateMutability": "view",
      "type": "function",
      "constant": true
    },
    {
      "inputs": [],
      "name": "amount",
      "outputs": [
        {
          "internalType": "uint256",
          "name": "",
          "type": "uint256"
        }
      ],
      "stateMutability": "view",
      "type": "function",
      "constant": true
    },
    {
      "inputs": [],
      "name": "eventCount",
      "outputs": [
        {
          "internalType": "uint256",
          "name": "",
          "type": "uint256"
        }
      ],
      "stateMutability": "view",
      "type": "function",
      "constant": true
    },
    {
      "inputs": [
        {
          "internalType": "uint256",
          "name": "",
          "type": "uint256"
        }
      ],
      "name": "events",
      "outputs": [
        {
          "internalType": "bool",
          "name": "sent",
          "type": "bool"
        },
        {
          "internalType": "address payable",
          "name": "send_to",
          "type": "address"
        },
        {
          "internalType": "uint256",
          "name": "voteCount",
          "type": "uint256"
        },
        {
          "internalType": "uint256",
          "name": "amount",
          "type": "uint256"
        }
      ],
      "stateMutability": "view",
      "type": "function",
      "constant": true
    },
    {
      "inputs": [],
      "name": "minNumberOfVotes",
      "outputs": [
        {
          "internalType": "uint256",
          "name": "",
          "type": "uint256"
        }
      ],
      "stateMutability": "view",
      "type": "function",
      "constant": true
    },
    {
      "inputs": [
        {
          "internalType": "address payable",
          "name": "_send_to",
          "type": "address"
        },
        {
          "internalType": "uint256",
          "name": "_amount",
          "type": "uint256"
        }
      ],
      "name": "createEvent",
      "outputs": [],
      "stateMutability": "nonpayable",
      "type": "function"
    },
    {
      "inputs": [
        {
          "internalType": "uint256",
          "name": "eventId",
          "type": "uint256"
        }
      ],
      "name": "WithdrawMoney",
      "outputs": [],
      "stateMutability": "nonpayable",
      "type": "function"
    }
  ],
  "bytecode": "0x6080604052600060015560405162000e8f38038062000e8f83398181016040528101906200002e919062000335565b82600081905550816002819055508060039080519060200190620000549291906200005e565b50505050620003b0565b828054828255906000526020600020908101928215620000da579160200282015b82811115620000d95782518260006101000a81548173ffffffffffffffffffffffffffffffffffffffff021916908373ffffffffffffffffffffffffffffffffffffffff160217905550916020019190600101906200007f565b5b509050620000e99190620000ed565b5090565b5b8082111562000108576000816000905550600101620000ee565b5090565b6000604051905090565b600080fd5b600080fd5b6000819050919050565b620001358162000120565b81146200014157600080fd5b50565b60008151905062000155816200012a565b92915050565b600080fd5b6000601f19601f8301169050919050565b7f4e487b7100000000000000000000000000000000000000000000000000000000600052604160045260246000fd5b620001ab8262000160565b810181811067ffffffffffffffff82111715620001cd57620001cc62000171565b5b80604052505050565b6000620001e26200010c565b9050620001f08282620001a0565b919050565b600067ffffffffffffffff82111562000213576200021262000171565b5b602082029050602081019050919050565b600080fd5b600073ffffffffffffffffffffffffffffffffffffffff82169050919050565b6000620002568262000229565b9050919050565b620002688162000249565b81146200027457600080fd5b50565b60008151905062000288816200025d565b92915050565b6000620002a56200029f84620001f5565b620001d6565b90508083825260208201905060208402830185811115620002cb57620002ca62000224565b5b835b81811015620002f85780620002e3888262000277565b845260208401935050602081019050620002cd565b5050509392505050565b600082601f8301126200031a57620003196200015b565b5b81516200032c8482602086016200028e565b91505092915050565b60008060006060848603121562000351576200035062000116565b5b6000620003618682870162000144565b9350506020620003748682870162000144565b925050604084015167ffffffffffffffff8111156200039857620003976200011b565b5b620003a68682870162000302565b9150509250925092565b610acf80620003c06000396000f3fe608060405234801561001057600080fd5b506004361061007d5760003560e01c806365e8d7de1161005b57806365e8d7de1461010357806371be2e4a1461011f578063aa8c217c1461013d578063fb8299b01461015b5761007d565b80630b7914301461008257806313414884146100b55780631fa9acf1146100d3575b600080fd5b61009c6004803603810190610097919061076a565b610177565b6040516100ac9493929190610802565b60405180910390f35b6100bd6101d4565b6040516100ca9190610847565b60405180910390f35b6100ed60048036038101906100e8919061076a565b6101da565b6040516100fa9190610883565b60405180910390f35b61011d600480360381019061011891906108ca565b610219565b005b6101276103e6565b6040516101349190610847565b60405180910390f35b6101456103ec565b6040516101529190610847565b60405180910390f35b6101756004803603810190610170919061076a565b6103f2565b005b60056020528060005260406000206000915090508060000160009054906101000a900460ff16908060000160019054906101000a900473ffffffffffffffffffffffffffffffffffffffff16908060010154908060020154905084565b60025481565b600381815481106101ea57600080fd5b906000526020600020016000915054906101000a900473ffffffffffffffffffffffffffffffffffffffff1681565b6000805b6003805490508110156102b3576003818154811061023e5761023d61090a565b5b9060005260206000200160009054906101000a900473ffffffffffffffffffffffffffffffffffffffff1673ffffffffffffffffffffffffffffffffffffffff163373ffffffffffffffffffffffffffffffffffffffff16036102a057600191505b80806102ab90610968565b91505061021d565b5060011515811515146102fb576040517f08c379a00000000000000000000000000000000000000000000000000000000081526004016102f290610a0d565b60405180910390fd5b60405180608001604052806000151581526020018473ffffffffffffffffffffffffffffffffffffffff168152602001600081526020018381525060056000600154815260200190815260200160002060008201518160000160006101000a81548160ff02191690831515021790555060208201518160000160016101000a81548173ffffffffffffffffffffffffffffffffffffffff021916908373ffffffffffffffffffffffffffffffffffffffff1602179055506040820151816001015560608201518160020155905050600160008154809291906103dc90610968565b9190505550505050565b60015481565b60005481565b6000805b60038054905081101561048c57600381815481106104175761041661090a565b5b9060005260206000200160009054906101000a900473ffffffffffffffffffffffffffffffffffffffff1673ffffffffffffffffffffffffffffffffffffffff163373ffffffffffffffffffffffffffffffffffffffff160361047957600191505b808061048490610968565b9150506103f6565b5060011515811515146104d4576040517f08c379a00000000000000000000000000000000000000000000000000000000081526004016104cb90610a0d565b60405180910390fd5b600015156005600084815260200190815260200160002060000160009054906101000a900460ff1615151461053e576040517f08c379a000000000000000000000000000000000000000000000000000000000815260040161053590610a79565b60405180910390fd5b60001515600460003373ffffffffffffffffffffffffffffffffffffffff1673ffffffffffffffffffffffffffffffffffffffff168152602001908152602001600020600084815260200190815260200160002060009054906101000a900460ff1615150361063d576001600460003373ffffffffffffffffffffffffffffffffffffffff1673ffffffffffffffffffffffffffffffffffffffff168152602001908152602001600020600084815260200190815260200160002060006101000a81548160ff02191690831515021790555060056000838152602001908152602001600020600101600081548092919061063790610968565b91905055505b60025460056000848152602001908152602001600020600101541061072b5760006005600084815260200190815260200160002060000160019054906101000a900473ffffffffffffffffffffffffffffffffffffffff1690506000600560008581526020019081526020016000206002015490508173ffffffffffffffffffffffffffffffffffffffff166108fc829081150290604051600060405180830381858888f193505050501580156106f8573d6000803e3d6000fd5b5060016005600086815260200190815260200160002060000160006101000a81548160ff02191690831515021790555050505b5050565b600080fd5b6000819050919050565b61074781610734565b811461075257600080fd5b50565b6000813590506107648161073e565b92915050565b6000602082840312156107805761077f61072f565b5b600061078e84828501610755565b91505092915050565b60008115159050919050565b6107ac81610797565b82525050565b600073ffffffffffffffffffffffffffffffffffffffff82169050919050565b60006107dd826107b2565b9050919050565b6107ed816107d2565b82525050565b6107fc81610734565b82525050565b600060808201905061081760008301876107a3565b61082460208301866107e4565b61083160408301856107f3565b61083e60608301846107f3565b95945050505050565b600060208201905061085c60008301846107f3565b92915050565b600061086d826107b2565b9050919050565b61087d81610862565b82525050565b60006020820190506108986000830184610874565b92915050565b6108a7816107d2565b81146108b257600080fd5b50565b6000813590506108c48161089e565b92915050565b600080604083850312156108e1576108e061072f565b5b60006108ef858286016108b5565b925050602061090085828601610755565b9150509250929050565b7f4e487b7100000000000000000000000000000000000000000000000000000000600052603260045260246000fd5b7f4e487b7100000000000000000000000000000000000000000000000000000000600052601160045260246000fd5b600061097382610734565b91507fffffffffffffffffffffffffffffffffffffffffffffffffffffffffffffffff82036109a5576109a4610939565b5b600182019050919050565b600082825260208201905092915050565b7f55736572206e6f742041646d696e000000000000000000000000000000000000600082015250565b60006109f7600e836109b0565b9150610a02826109c1565b602082019050919050565b60006020820190508181036000830152610a26816109ea565b9050919050565b7f4576656e7420416c726561647920457865637574656400000000000000000000600082015250565b6000610a636016836109b0565b9150610a6e82610a2d565b602082019050919050565b60006020820190508181036000830152610a9281610a56565b905091905056fea26469706673582212200b932ab74257a04987ecd41a5f3b51474640cdeee361097c544f103862402d5664736f6c634300080d0033",
  "immutableReferences": {},
  "source": "// SPDX-License-Identifier: MIT\npragma solidity ^0.8.0;\n\ncontract MultiSig {\n\n    uint public amount;\n    uint public eventCount = 0;\n    uint public minNumberOfVotes;\n    address[] public adminUsers;\n\n    mapping(address => mapping(uint => bool)) votingRecord; // for admin voting\n    struct TransectionEvent {\n        bool sent;\n        address payable send_to;\n        uint voteCount;\n        uint amount;\n    }\n    mapping(uint => TransectionEvent) public events;\n    // TransectionEvent[] events;\n\n    constructor(uint _amount,  uint _minNumberOfVotes,address[] memory _adminUsers) payable{\n        amount = _amount;\n        minNumberOfVotes = _minNumberOfVotes;\n        adminUsers = _adminUsers;\n    }\n\n    function createEvent(address payable _send_to,uint _amount) onlyAdmin() external {\n        events[eventCount] = TransectionEvent(false,_send_to,0,_amount);\n        eventCount++;\n    }\n\n    function WithdrawMoney( uint eventId) onlyAdmin() external{\n        // require(votingRecord[msg.sender][eventId] == false ,\"Admin already voted\");\n        require(events[eventId].sent == false, \"Event Already Executed\");\n        // require(eventCount >= eventId, \"Event not found\");\n        if(votingRecord[msg.sender][eventId] == false){\n            votingRecord[msg.sender][eventId] = true;\n            events[eventId].voteCount++;\n        }\n        if(events[eventId].voteCount >= minNumberOfVotes){\n            address payable to = events[eventId].send_to;\n            uint amt = events[eventId].amount;\n            to.transfer(amt);\n            events[eventId].sent = true;\n        }\n    }\n\n    modifier onlyAdmin(){\n        bool allowed = false;\n        for(uint i = 0; i < adminUsers.length; i++){\n            if(msg.sender == adminUsers[i]){\n                allowed = true;\n                // break;\n            }\n        }\n        require(allowed == true,\"User not Admin\");\n        _;\n    }\n}",
  "sourcePath": "/home/rajan/Documents/Rajan/BlockChain/Web3Apps/multi-sign-wallet/contracts/MultiSig.sol",
  "compiler": {
    "name": "solc",
    "version": "0.8.13+commit.abaa5c0e.Emscripten.clang"
  },
  "schemaVersion": "3.4.7",
  "updatedAt": "2022-06-02T19:36:29.933Z",
  "networkType": "ethereum",
  "devdoc": {
    "kind": "dev",
    "methods": {},
    "version": 1
  },
  "userdoc": {
    "kind": "user",
    "methods": {},
    "version": 1
  }
}